{"contracts/LoanPlatform.sol":{"LoanPlatform":{"abi":[{"inputs":[{"internalType":"address","name":"_tokenAddress","type":"address"},{"internalType":"uint256","name":"_interestRate","type":"uint256"}],"stateMutability":"nonpayable","type":"constructor"},{"anonymous":false,"inputs":[{"indexed":true,"internalType":"address","name":"borrower","type":"address"},{"indexed":true,"internalType":"uint256","name":"loanId","type":"uint256"},{"indexed":false,"internalType":"uint256","name":"amount","type":"uint256"},{"indexed":false,"internalType":"uint256","name":"totalAmount","type":"uint256"}],"name":"LoanCreated","type":"event"},{"anonymous":false,"inputs":[{"indexed":true,"internalType":"address","name":"borrower","type":"address"},{"indexed":true,"internalType":"uint256","name":"loanId","type":"uint256"},{"indexed":false,"internalType":"uint256","name":"repaidAmount","type":"uint256"}],"name":"LoanRepaid","type":"event"},{"inputs":[],"name":"interestRate","outputs":[{"internalType":"uint256","name":"","type":"uint256"}],"stateMutability":"view","type":"function"},{"inputs":[{"internalType":"uint256","name":"","type":"uint256"}],"name":"loans","outputs":[{"internalType":"uint256","name":"loanId","type":"uint256"},{"internalType":"address","name":"borrower","type":"address"},{"internalType":"uint256","name":"amount","type":"uint256"},{"internalType":"uint256","name":"interest","type":"uint256"},{"internalType":"uint256","name":"totalAmount","type":"uint256"},{"internalType":"uint256","name":"repaidAmount","type":"uint256"},{"internalType":"bool","name":"active","type":"bool"}],"stateMutability":"view","type":"function"},{"inputs":[],"name":"owner","outputs":[{"internalType":"address","name":"","type":"address"}],"stateMutability":"view","type":"function"},{"inputs":[{"internalType":"uint256","name":"_loanId","type":"uint256"},{"internalType":"uint256","name":"_amount","type":"uint256"}],"name":"repayLoan","outputs":[],"stateMutability":"nonpayable","type":"function"},{"inputs":[{"internalType":"uint256","name":"_amount","type":"uint256"}],"name":"requestLoan","outputs":[],"stateMutability":"nonpayable","type":"function"},{"inputs":[{"internalType":"uint256","name":"_newInterestRate","type":"uint256"}],"name":"setInterestRate","outputs":[],"stateMutability":"nonpayable","type":"function"},{"inputs":[],"name":"token","outputs":[{"internalType":"contract SiliquaCoin","name":"","type":"address"}],"stateMutability":"view","type":"function"},{"inputs":[],"name":"totalLoans","outputs":[{"internalType":"uint256","name":"","type":"uint256"}],"stateMutability":"view","type":"function"}],"evm":{"bytecode":{"linkReferences":{},"object":"608060405234801561001057600080fd5b5060405161094f38038061094f83398101604081905261002f91610064565b600080546001600160a01b039093166001600160a01b031993841617815560018054909316331790925560025560035561009c565b60008060408385031215610076578182fd5b82516001600160a01b038116811461008c578283fd5b6020939093015192949293505050565b6108a4806100ab6000396000f3fe608060405234801561001057600080fd5b50600436106100885760003560e01c80638da5cb5b1161005b5780638da5cb5b146100e6578063cc952b57146100fb578063e1ec3c6814610103578063fc0c546a1461012957610088565b80635f84f3021461008d5780637c3a00fd146100a25780638a700b53146100c05780638d5d3429146100d3575b600080fd5b6100a061009b3660046105fe565b610131565b005b6100aa610169565b6040516100b79190610798565b60405180910390f35b6100a06100ce366004610616565b61016f565b6100a06100e13660046105fe565b61033f565b6100ee610569565b6040516100b79190610661565b6100aa610578565b6101166101113660046105fe565b61057e565b6040516100b797969594939291906107a1565b6100ee6105c8565b6001546001600160a01b031633146101645760405162461bcd60e51b815260040161015b9061074d565b60405180910390fd5b600255565b60025481565b60008281526004602052604090206006015460ff166101a05760405162461bcd60e51b815260040161015b906106c2565b600082815260046020819052604090912060058101549101546101c39190610841565b8111156101e25760405162461bcd60e51b815260040161015b906106ea565b6000546001546040516317d5759960e31b81526001600160a01b039283169263beabacc89261021b923392909116908690600401610675565b602060405180830381600087803b15801561023557600080fd5b505af1158015610249573d6000803e3d6000fd5b505050506040513d601f19601f8201168201806040525081019061026d91906105d7565b6102895760405162461bcd60e51b815260040161015b90610699565b600082815260046020526040812060050180548392906102aa9084906107ea565b90915550506000828152600460208190526040909120908101546005909101541061033b576000828152600460205260409081902060068101805460ff191690556001810154600590910154915184926001600160a01b03909216917fc7ce0a35f17b490de2a317e7fecb2cae86b1abffb03800b2f492823521382698916103329190610798565b60405180910390a35b5050565b60008181526004602052604090206006015460ff16156103715760405162461bcd60e51b815260040161015b90610721565b60006064600254836103839190610822565b61038d9190610802565b9050600061039b82846107ea565b6000546001546040516323b872dd60e01b81529293506001600160a01b03918216926323b872dd926103d592169033908890600401610675565b602060405180830381600087803b1580156103ef57600080fd5b505af1158015610403573d6000803e3d6000fd5b505050506040513d601f19601f8201168201806040525081019061042791906105d7565b6104435760405162461bcd60e51b815260040161015b90610699565b600033428560405160200161045a93929190610637565b60408051808303601f19018152828252805160209182012060e084018352808452338285019081528484018981526060860189815260808701898152600060a08901818152600160c08b0181815260038054855260049a8b90529a84209b518c5596518b820180546001600160a01b0319166001600160a01b03909216919091179055945160028b015592518989015590519588019590955551600587015590516006909501805460ff19169515159590951790945582549094506105209084906107ea565b9091555050604051819033907f1804eb76dc9809be7ef188388aa1aeb765881fd848377be891234e5c584345fe9061055b90889087906107dc565b60405180910390a350505050565b6001546001600160a01b031681565b60035481565b6004602081905260009182526040909120805460018201546002830154600384015494840154600585015460069095015493956001600160a01b0390931694919390919060ff1687565b6000546001600160a01b031681565b6000602082840312156105e8578081fd5b815180151581146105f7578182fd5b9392505050565b60006020828403121561060f578081fd5b5035919050565b60008060408385031215610628578081fd5b50508035926020909101359150565b60609390931b6bffffffffffffffffffffffff191683526014830191909152603482015260540190565b6001600160a01b0391909116815260200190565b6001600160a01b039384168152919092166020820152604081019190915260600190565b6020808252600f908201526e151c985b9cd9995c8819985a5b1959608a1b604082015260600190565b6020808252600e908201526d27379030b1ba34bb32903637b0b760911b604082015260600190565b60208082526018908201527f496e76616c69642072657061796d656e7420616d6f756e740000000000000000604082015260600190565b602080825260129082015271416374697665206c6f616e2065786973747360701b604082015260600190565b6020808252602b908201527f4f6e6c7920746865206f776e65722063616e206368616e67652074686520696e60408201526a746572657374207261746560a81b606082015260800190565b90815260200190565b9687526001600160a01b0395909516602087015260408601939093526060850191909152608084015260a0830152151560c082015260e00190565b918252602082015260400190565b600082198211156107fd576107fd610858565b500190565b60008261081d57634e487b7160e01b81526012600452602481fd5b500490565b600081600019048311821515161561083c5761083c610858565b500290565b60008282101561085357610853610858565b500390565b634e487b7160e01b600052601160045260246000fdfea2646970667358221220cfab9bbe4dbabbe5a4e21c3c82f40b56b0767ca67bbcbffe854cb6a9debf768564736f6c63430008010033","opcodes":"PUSH1 0x80 PUSH1 0x40 MSTORE CALLVALUE DUP1 ISZERO PUSH2 0x10 JUMPI PUSH1 0x0 DUP1 REVERT JUMPDEST POP PUSH1 0x40 MLOAD PUSH2 0x94F CODESIZE SUB DUP1 PUSH2 0x94F DUP4 CODECOPY DUP2 ADD PUSH1 0x40 DUP2 SWAP1 MSTORE PUSH2 0x2F SWAP2 PUSH2 0x64 JUMP JUMPDEST PUSH1 0x0 DUP1 SLOAD PUSH1 0x1 PUSH1 0x1 PUSH1 0xA0 SHL SUB SWAP1 SWAP4 AND PUSH1 0x1 PUSH1 0x1 PUSH1 0xA0 SHL SUB NOT SWAP4 DUP5 AND OR DUP2 SSTORE PUSH1 0x1 DUP1 SLOAD SWAP1 SWAP4 AND CALLER OR SWAP1 SWAP3 SSTORE PUSH1 0x2 SSTORE PUSH1 0x3 SSTORE PUSH2 0x9C JUMP JUMPDEST PUSH1 0x0 DUP1 PUSH1 0x40 DUP4 DUP6 SUB SLT ISZERO PUSH2 0x76 JUMPI DUP2 DUP3 REVERT JUMPDEST DUP3 MLOAD PUSH1 0x1 PUSH1 0x1 PUSH1 0xA0 SHL SUB DUP2 AND DUP2 EQ PUSH2 0x8C JUMPI DUP3 DUP4 REVERT JUMPDEST PUSH1 0x20 SWAP4 SWAP1 SWAP4 ADD MLOAD SWAP3 SWAP5 SWAP3 SWAP4 POP POP POP JUMP JUMPDEST PUSH2 0x8A4 DUP1 PUSH2 0xAB PUSH1 0x0 CODECOPY PUSH1 0x0 RETURN INVALID PUSH1 0x80 PUSH1 0x40 MSTORE CALLVALUE DUP1 ISZERO PUSH2 0x10 JUMPI PUSH1 0x0 DUP1 REVERT JUMPDEST POP PUSH1 0x4 CALLDATASIZE LT PUSH2 0x88 JUMPI PUSH1 0x0 CALLDATALOAD PUSH1 0xE0 SHR DUP1 PUSH4 0x8DA5CB5B GT PUSH2 0x5B JUMPI DUP1 PUSH4 0x8DA5CB5B EQ PUSH2 0xE6 JUMPI DUP1 PUSH4 0xCC952B57 EQ PUSH2 0xFB JUMPI DUP1 PUSH4 0xE1EC3C68 EQ PUSH2 0x103 JUMPI DUP1 PUSH4 0xFC0C546A EQ PUSH2 0x129 JUMPI PUSH2 0x88 JUMP JUMPDEST DUP1 PUSH4 0x5F84F302 EQ PUSH2 0x8D JUMPI DUP1 PUSH4 0x7C3A00FD EQ PUSH2 0xA2 JUMPI DUP1 PUSH4 0x8A700B53 EQ PUSH2 0xC0 JUMPI DUP1 PUSH4 0x8D5D3429 EQ PUSH2 0xD3 JUMPI JUMPDEST PUSH1 0x0 DUP1 REVERT JUMPDEST PUSH2 0xA0 PUSH2 0x9B CALLDATASIZE PUSH1 0x4 PUSH2 0x5FE JUMP JUMPDEST PUSH2 0x131 JUMP JUMPDEST STOP JUMPDEST PUSH2 0xAA PUSH2 0x169 JUMP JUMPDEST PUSH1 0x40 MLOAD PUSH2 0xB7 SWAP2 SWAP1 PUSH2 0x798 JUMP JUMPDEST PUSH1 0x40 MLOAD DUP1 SWAP2 SUB SWAP1 RETURN JUMPDEST PUSH2 0xA0 PUSH2 0xCE CALLDATASIZE PUSH1 0x4 PUSH2 0x616 JUMP JUMPDEST PUSH2 0x16F JUMP JUMPDEST PUSH2 0xA0 PUSH2 0xE1 CALLDATASIZE PUSH1 0x4 PUSH2 0x5FE JUMP JUMPDEST PUSH2 0x33F JUMP JUMPDEST PUSH2 0xEE PUSH2 0x569 JUMP JUMPDEST PUSH1 0x40 MLOAD PUSH2 0xB7 SWAP2 SWAP1 PUSH2 0x661 JUMP JUMPDEST PUSH2 0xAA PUSH2 0x578 JUMP JUMPDEST PUSH2 0x116 PUSH2 0x111 CALLDATASIZE PUSH1 0x4 PUSH2 0x5FE JUMP JUMPDEST PUSH2 0x57E JUMP JUMPDEST PUSH1 0x40 MLOAD PUSH2 0xB7 SWAP8 SWAP7 SWAP6 SWAP5 SWAP4 SWAP3 SWAP2 SWAP1 PUSH2 0x7A1 JUMP JUMPDEST PUSH2 0xEE PUSH2 0x5C8 JUMP JUMPDEST PUSH1 0x1 SLOAD PUSH1 0x1 PUSH1 0x1 PUSH1 0xA0 SHL SUB AND CALLER EQ PUSH2 0x164 JUMPI PUSH1 0x40 MLOAD PUSH3 0x461BCD PUSH1 0xE5 SHL DUP2 MSTORE PUSH1 0x4 ADD PUSH2 0x15B SWAP1 PUSH2 0x74D JUMP JUMPDEST PUSH1 0x40 MLOAD DUP1 SWAP2 SUB SWAP1 REVERT JUMPDEST PUSH1 0x2 SSTORE JUMP JUMPDEST PUSH1 0x2 SLOAD DUP2 JUMP JUMPDEST PUSH1 0x0 DUP3 DUP2 MSTORE PUSH1 0x4 PUSH1 0x20 MSTORE PUSH1 0x40 SWAP1 KECCAK256 PUSH1 0x6 ADD SLOAD PUSH1 0xFF AND PUSH2 0x1A0 JUMPI PUSH1 0x40 MLOAD PUSH3 0x461BCD PUSH1 0xE5 SHL DUP2 MSTORE PUSH1 0x4 ADD PUSH2 0x15B SWAP1 PUSH2 0x6C2 JUMP JUMPDEST PUSH1 0x0 DUP3 DUP2 MSTORE PUSH1 0x4 PUSH1 0x20 DUP2 SWAP1 MSTORE PUSH1 0x40 SWAP1 SWAP2 KECCAK256 PUSH1 0x5 DUP2 ADD SLOAD SWAP2 ADD SLOAD PUSH2 0x1C3 SWAP2 SWAP1 PUSH2 0x841 JUMP JUMPDEST DUP2 GT ISZERO PUSH2 0x1E2 JUMPI PUSH1 0x40 MLOAD PUSH3 0x461BCD PUSH1 0xE5 SHL DUP2 MSTORE PUSH1 0x4 ADD PUSH2 0x15B SWAP1 PUSH2 0x6EA JUMP JUMPDEST PUSH1 0x0 SLOAD PUSH1 0x1 SLOAD PUSH1 0x40 MLOAD PUSH4 0x17D57599 PUSH1 0xE3 SHL DUP2 MSTORE PUSH1 0x1 PUSH1 0x1 PUSH1 0xA0 SHL SUB SWAP3 DUP4 AND SWAP3 PUSH4 0xBEABACC8 SWAP3 PUSH2 0x21B SWAP3 CALLER SWAP3 SWAP1 SWAP2 AND SWAP1 DUP7 SWAP1 PUSH1 0x4 ADD PUSH2 0x675 JUMP JUMPDEST PUSH1 0x20 PUSH1 0x40 MLOAD DUP1 DUP4 SUB DUP2 PUSH1 0x0 DUP8 DUP1 EXTCODESIZE ISZERO DUP1 ISZERO PUSH2 0x235 JUMPI PUSH1 0x0 DUP1 REVERT JUMPDEST POP GAS CALL ISZERO DUP1 ISZERO PUSH2 0x249 JUMPI RETURNDATASIZE PUSH1 0x0 DUP1 RETURNDATACOPY RETURNDATASIZE PUSH1 0x0 REVERT JUMPDEST POP POP POP POP PUSH1 0x40 MLOAD RETURNDATASIZE PUSH1 0x1F NOT PUSH1 0x1F DUP3 ADD AND DUP3 ADD DUP1 PUSH1 0x40 MSTORE POP DUP2 ADD SWAP1 PUSH2 0x26D SWAP2 SWAP1 PUSH2 0x5D7 JUMP JUMPDEST PUSH2 0x289 JUMPI PUSH1 0x40 MLOAD PUSH3 0x461BCD PUSH1 0xE5 SHL DUP2 MSTORE PUSH1 0x4 ADD PUSH2 0x15B SWAP1 PUSH2 0x699 JUMP JUMPDEST PUSH1 0x0 DUP3 DUP2 MSTORE PUSH1 0x4 PUSH1 0x20 MSTORE PUSH1 0x40 DUP2 KECCAK256 PUSH1 0x5 ADD DUP1 SLOAD DUP4 SWAP3 SWAP1 PUSH2 0x2AA SWAP1 DUP5 SWAP1 PUSH2 0x7EA JUMP JUMPDEST SWAP1 SWAP2 SSTORE POP POP PUSH1 0x0 DUP3 DUP2 MSTORE PUSH1 0x4 PUSH1 0x20 DUP2 SWAP1 MSTORE PUSH1 0x40 SWAP1 SWAP2 KECCAK256 SWAP1 DUP2 ADD SLOAD PUSH1 0x5 SWAP1 SWAP2 ADD SLOAD LT PUSH2 0x33B JUMPI PUSH1 0x0 DUP3 DUP2 MSTORE PUSH1 0x4 PUSH1 0x20 MSTORE PUSH1 0x40 SWAP1 DUP2 SWAP1 KECCAK256 PUSH1 0x6 DUP2 ADD DUP1 SLOAD PUSH1 0xFF NOT AND SWAP1 SSTORE PUSH1 0x1 DUP2 ADD SLOAD PUSH1 0x5 SWAP1 SWAP2 ADD SLOAD SWAP2 MLOAD DUP5 SWAP3 PUSH1 0x1 PUSH1 0x1 PUSH1 0xA0 SHL SUB SWAP1 SWAP3 AND SWAP2 PUSH32 0xC7CE0A35F17B490DE2A317E7FECB2CAE86B1ABFFB03800B2F492823521382698 SWAP2 PUSH2 0x332 SWAP2 SWAP1 PUSH2 0x798 JUMP JUMPDEST PUSH1 0x40 MLOAD DUP1 SWAP2 SUB SWAP1 LOG3 JUMPDEST POP POP JUMP JUMPDEST PUSH1 0x0 DUP2 DUP2 MSTORE PUSH1 0x4 PUSH1 0x20 MSTORE PUSH1 0x40 SWAP1 KECCAK256 PUSH1 0x6 ADD SLOAD PUSH1 0xFF AND ISZERO PUSH2 0x371 JUMPI PUSH1 0x40 MLOAD PUSH3 0x461BCD PUSH1 0xE5 SHL DUP2 MSTORE PUSH1 0x4 ADD PUSH2 0x15B SWAP1 PUSH2 0x721 JUMP JUMPDEST PUSH1 0x0 PUSH1 0x64 PUSH1 0x2 SLOAD DUP4 PUSH2 0x383 SWAP2 SWAP1 PUSH2 0x822 JUMP JUMPDEST PUSH2 0x38D SWAP2 SWAP1 PUSH2 0x802 JUMP JUMPDEST SWAP1 POP PUSH1 0x0 PUSH2 0x39B DUP3 DUP5 PUSH2 0x7EA JUMP JUMPDEST PUSH1 0x0 SLOAD PUSH1 0x1 SLOAD PUSH1 0x40 MLOAD PUSH4 0x23B872DD PUSH1 0xE0 SHL DUP2 MSTORE SWAP3 SWAP4 POP PUSH1 0x1 PUSH1 0x1 PUSH1 0xA0 SHL SUB SWAP2 DUP3 AND SWAP3 PUSH4 0x23B872DD SWAP3 PUSH2 0x3D5 SWAP3 AND SWAP1 CALLER SWAP1 DUP9 SWAP1 PUSH1 0x4 ADD PUSH2 0x675 JUMP JUMPDEST PUSH1 0x20 PUSH1 0x40 MLOAD DUP1 DUP4 SUB DUP2 PUSH1 0x0 DUP8 DUP1 EXTCODESIZE ISZERO DUP1 ISZERO PUSH2 0x3EF JUMPI PUSH1 0x0 DUP1 REVERT JUMPDEST POP GAS CALL ISZERO DUP1 ISZERO PUSH2 0x403 JUMPI RETURNDATASIZE PUSH1 0x0 DUP1 RETURNDATACOPY RETURNDATASIZE PUSH1 0x0 REVERT JUMPDEST POP POP POP POP PUSH1 0x40 MLOAD RETURNDATASIZE PUSH1 0x1F NOT PUSH1 0x1F DUP3 ADD AND DUP3 ADD DUP1 PUSH1 0x40 MSTORE POP DUP2 ADD SWAP1 PUSH2 0x427 SWAP2 SWAP1 PUSH2 0x5D7 JUMP JUMPDEST PUSH2 0x443 JUMPI PUSH1 0x40 MLOAD PUSH3 0x461BCD PUSH1 0xE5 SHL DUP2 MSTORE PUSH1 0x4 ADD PUSH2 0x15B SWAP1 PUSH2 0x699 JUMP JUMPDEST PUSH1 0x0 CALLER TIMESTAMP DUP6 PUSH1 0x40 MLOAD PUSH1 0x20 ADD PUSH2 0x45A SWAP4 SWAP3 SWAP2 SWAP1 PUSH2 0x637 JUMP JUMPDEST PUSH1 0x40 DUP1 MLOAD DUP1 DUP4 SUB PUSH1 0x1F NOT ADD DUP2 MSTORE DUP3 DUP3 MSTORE DUP1 MLOAD PUSH1 0x20 SWAP2 DUP3 ADD KECCAK256 PUSH1 0xE0 DUP5 ADD DUP4 MSTORE DUP1 DUP5 MSTORE CALLER DUP3 DUP6 ADD SWAP1 DUP2 MSTORE DUP5 DUP5 ADD DUP10 DUP2 MSTORE PUSH1 0x60 DUP7 ADD DUP10 DUP2 MSTORE PUSH1 0x80 DUP8 ADD DUP10 DUP2 MSTORE PUSH1 0x0 PUSH1 0xA0 DUP10 ADD DUP2 DUP2 MSTORE PUSH1 0x1 PUSH1 0xC0 DUP12 ADD DUP2 DUP2 MSTORE PUSH1 0x3 DUP1 SLOAD DUP6 MSTORE PUSH1 0x4 SWAP11 DUP12 SWAP1 MSTORE SWAP11 DUP5 KECCAK256 SWAP12 MLOAD DUP13 SSTORE SWAP7 MLOAD DUP12 DUP3 ADD DUP1 SLOAD PUSH1 0x1 PUSH1 0x1 PUSH1 0xA0 SHL SUB NOT AND PUSH1 0x1 PUSH1 0x1 PUSH1 0xA0 SHL SUB SWAP1 SWAP3 AND SWAP2 SWAP1 SWAP2 OR SWAP1 SSTORE SWAP5 MLOAD PUSH1 0x2 DUP12 ADD SSTORE SWAP3 MLOAD DUP10 DUP10 ADD SSTORE SWAP1 MLOAD SWAP6 DUP9 ADD SWAP6 SWAP1 SWAP6 SSTORE MLOAD PUSH1 0x5 DUP8 ADD SSTORE SWAP1 MLOAD PUSH1 0x6 SWAP1 SWAP6 ADD DUP1 SLOAD PUSH1 0xFF NOT AND SWAP6 ISZERO ISZERO SWAP6 SWAP1 SWAP6 OR SWAP1 SWAP5 SSTORE DUP3 SLOAD SWAP1 SWAP5 POP PUSH2 0x520 SWAP1 DUP5 SWAP1 PUSH2 0x7EA JUMP JUMPDEST SWAP1 SWAP2 SSTORE POP POP PUSH1 0x40 MLOAD DUP2 SWAP1 CALLER SWAP1 PUSH32 0x1804EB76DC9809BE7EF188388AA1AEB765881FD848377BE891234E5C584345FE SWAP1 PUSH2 0x55B SWAP1 DUP9 SWAP1 DUP8 SWAP1 PUSH2 0x7DC JUMP JUMPDEST PUSH1 0x40 MLOAD DUP1 SWAP2 SUB SWAP1 LOG3 POP POP POP POP JUMP JUMPDEST PUSH1 0x1 SLOAD PUSH1 0x1 PUSH1 0x1 PUSH1 0xA0 SHL SUB AND DUP2 JUMP JUMPDEST PUSH1 0x3 SLOAD DUP2 JUMP JUMPDEST PUSH1 0x4 PUSH1 0x20 DUP2 SWAP1 MSTORE PUSH1 0x0 SWAP2 DUP3 MSTORE PUSH1 0x40 SWAP1 SWAP2 KECCAK256 DUP1 SLOAD PUSH1 0x1 DUP3 ADD SLOAD PUSH1 0x2 DUP4 ADD SLOAD PUSH1 0x3 DUP5 ADD SLOAD SWAP5 DUP5 ADD SLOAD PUSH1 0x5 DUP6 ADD SLOAD PUSH1 0x6 SWAP1 SWAP6 ADD SLOAD SWAP4 SWAP6 PUSH1 0x1 PUSH1 0x1 PUSH1 0xA0 SHL SUB SWAP1 SWAP4 AND SWAP5 SWAP2 SWAP4 SWAP1 SWAP2 SWAP1 PUSH1 0xFF AND DUP8 JUMP JUMPDEST PUSH1 0x0 SLOAD PUSH1 0x1 PUSH1 0x1 PUSH1 0xA0 SHL SUB AND DUP2 JUMP JUMPDEST PUSH1 0x0 PUSH1 0x20 DUP3 DUP5 SUB SLT ISZERO PUSH2 0x5E8 JUMPI DUP1 DUP2 REVERT JUMPDEST DUP2 MLOAD DUP1 ISZERO ISZERO DUP2 EQ PUSH2 0x5F7 JUMPI DUP2 DUP3 REVERT JUMPDEST SWAP4 SWAP3 POP POP POP JUMP JUMPDEST PUSH1 0x0 PUSH1 0x20 DUP3 DUP5 SUB SLT ISZERO PUSH2 0x60F JUMPI DUP1 DUP2 REVERT JUMPDEST POP CALLDATALOAD SWAP2 SWAP1 POP JUMP JUMPDEST PUSH1 0x0 DUP1 PUSH1 0x40 DUP4 DUP6 SUB SLT ISZERO PUSH2 0x628 JUMPI DUP1 DUP2 REVERT JUMPDEST POP POP DUP1 CALLDATALOAD SWAP3 PUSH1 0x20 SWAP1 SWAP2 ADD CALLDATALOAD SWAP2 POP JUMP JUMPDEST PUSH1 0x60 SWAP4 SWAP1 SWAP4 SHL PUSH12 0xFFFFFFFFFFFFFFFFFFFFFFFF NOT AND DUP4 MSTORE PUSH1 0x14 DUP4 ADD SWAP2 SWAP1 SWAP2 MSTORE PUSH1 0x34 DUP3 ADD MSTORE PUSH1 0x54 ADD SWAP1 JUMP JUMPDEST PUSH1 0x1 PUSH1 0x1 PUSH1 0xA0 SHL SUB SWAP2 SWAP1 SWAP2 AND DUP2 MSTORE PUSH1 0x20 ADD SWAP1 JUMP JUMPDEST PUSH1 0x1 PUSH1 0x1 PUSH1 0xA0 SHL SUB SWAP4 DUP5 AND DUP2 MSTORE SWAP2 SWAP1 SWAP3 AND PUSH1 0x20 DUP3 ADD MSTORE PUSH1 0x40 DUP2 ADD SWAP2 SWAP1 SWAP2 MSTORE PUSH1 0x60 ADD SWAP1 JUMP JUMPDEST PUSH1 0x20 DUP1 DUP3 MSTORE PUSH1 0xF SWAP1 DUP3 ADD MSTORE PUSH15 0x151C985B9CD9995C8819985A5B1959 PUSH1 0x8A SHL PUSH1 0x40 DUP3 ADD MSTORE PUSH1 0x60 ADD SWAP1 JUMP JUMPDEST PUSH1 0x20 DUP1 DUP3 MSTORE PUSH1 0xE SWAP1 DUP3 ADD MSTORE PUSH14 0x27379030B1BA34BB32903637B0B7 PUSH1 0x91 SHL PUSH1 0x40 DUP3 ADD MSTORE PUSH1 0x60 ADD SWAP1 JUMP JUMPDEST PUSH1 0x20 DUP1 DUP3 MSTORE PUSH1 0x18 SWAP1 DUP3 ADD MSTORE PUSH32 0x496E76616C69642072657061796D656E7420616D6F756E740000000000000000 PUSH1 0x40 DUP3 ADD MSTORE PUSH1 0x60 ADD SWAP1 JUMP JUMPDEST PUSH1 0x20 DUP1 DUP3 MSTORE PUSH1 0x12 SWAP1 DUP3 ADD MSTORE PUSH18 0x416374697665206C6F616E20657869737473 PUSH1 0x70 SHL PUSH1 0x40 DUP3 ADD MSTORE PUSH1 0x60 ADD SWAP1 JUMP JUMPDEST PUSH1 0x20 DUP1 DUP3 MSTORE PUSH1 0x2B SWAP1 DUP3 ADD MSTORE PUSH32 0x4F6E6C7920746865206F776E65722063616E206368616E67652074686520696E PUSH1 0x40 DUP3 ADD MSTORE PUSH11 0x7465726573742072617465 PUSH1 0xA8 SHL PUSH1 0x60 DUP3 ADD MSTORE PUSH1 0x80 ADD SWAP1 JUMP JUMPDEST SWAP1 DUP2 MSTORE PUSH1 0x20 ADD SWAP1 JUMP JUMPDEST SWAP7 DUP8 MSTORE PUSH1 0x1 PUSH1 0x1 PUSH1 0xA0 SHL SUB SWAP6 SWAP1 SWAP6 AND PUSH1 0x20 DUP8 ADD MSTORE PUSH1 0x40 DUP7 ADD SWAP4 SWAP1 SWAP4 MSTORE PUSH1 0x60 DUP6 ADD SWAP2 SWAP1 SWAP2 MSTORE PUSH1 0x80 DUP5 ADD MSTORE PUSH1 0xA0 DUP4 ADD MSTORE ISZERO ISZERO PUSH1 0xC0 DUP3 ADD MSTORE PUSH1 0xE0 ADD SWAP1 JUMP JUMPDEST SWAP2 DUP3 MSTORE PUSH1 0x20 DUP3 ADD MSTORE PUSH1 0x40 ADD SWAP1 JUMP JUMPDEST PUSH1 0x0 DUP3 NOT DUP3 GT ISZERO PUSH2 0x7FD JUMPI PUSH2 0x7FD PUSH2 0x858 JUMP JUMPDEST POP ADD SWAP1 JUMP JUMPDEST PUSH1 0x0 DUP3 PUSH2 0x81D JUMPI PUSH4 0x4E487B71 PUSH1 0xE0 SHL DUP2 MSTORE PUSH1 0x12 PUSH1 0x4 MSTORE PUSH1 0x24 DUP2 REVERT JUMPDEST POP DIV SWAP1 JUMP JUMPDEST PUSH1 0x0 DUP2 PUSH1 0x0 NOT DIV DUP4 GT DUP3 ISZERO ISZERO AND ISZERO PUSH2 0x83C JUMPI PUSH2 0x83C PUSH2 0x858 JUMP JUMPDEST POP MUL SWAP1 JUMP JUMPDEST PUSH1 0x0 DUP3 DUP3 LT ISZERO PUSH2 0x853 JUMPI PUSH2 0x853 PUSH2 0x858 JUMP JUMPDEST POP SUB SWAP1 JUMP JUMPDEST PUSH4 0x4E487B71 PUSH1 0xE0 SHL PUSH1 0x0 MSTORE PUSH1 0x11 PUSH1 0x4 MSTORE PUSH1 0x24 PUSH1 0x0 REVERT INVALID LOG2 PUSH5 0x6970667358 0x22 SLT KECCAK256 0xCF 0xAB SWAP12 0xBE 0x4D 0xBA 0xBB 0xE5 LOG4 0xE2 SHR EXTCODECOPY DUP3 DELEGATECALL SIGNEXTEND JUMP 0xB0 PUSH23 0x7CA67BBCBFFE854CB6A9DEBF768564736F6C6343000801 STOP CALLER "},"methodIdentifiers":{"interestRate()":"7c3a00fd","loans(uint256)":"e1ec3c68","owner()":"8da5cb5b","repayLoan(uint256,uint256)":"8a700b53","requestLoan(uint256)":"8d5d3429","setInterestRate(uint256)":"5f84f302","token()":"fc0c546a","totalLoans()":"cc952b57"}}}}}