{
  "_format": "hh-sol-artifact-1",
  "contractName": "SiliquaCoin",
  "sourceName": "contracts/SiliquaCoin.sol",
  "abi": [
    {
      "inputs": [
        {
          "internalType": "string",
          "name": "_name",
          "type": "string"
        },
        {
          "internalType": "string",
          "name": "_symbol",
          "type": "string"
        },
        {
          "internalType": "uint8",
          "name": "_decimals",
          "type": "uint8"
        },
        {
          "internalType": "uint256",
          "name": "initialSupply",
          "type": "uint256"
        }
      ],
      "stateMutability": "nonpayable",
      "type": "constructor"
    },
    {
      "anonymous": false,
      "inputs": [
        {
          "indexed": true,
          "internalType": "address",
          "name": "owner",
          "type": "address"
        },
        {
          "indexed": true,
          "internalType": "address",
          "name": "spender",
          "type": "address"
        },
        {
          "indexed": false,
          "internalType": "uint256",
          "name": "value",
          "type": "uint256"
        }
      ],
      "name": "Approval",
      "type": "event"
    },
    {
      "anonymous": false,
      "inputs": [
        {
          "indexed": true,
          "internalType": "address",
          "name": "previousOwner",
          "type": "address"
        },
        {
          "indexed": true,
          "internalType": "address",
          "name": "newOwner",
          "type": "address"
        }
      ],
      "name": "OwnershipTransferred",
      "type": "event"
    },
    {
      "anonymous": false,
      "inputs": [
        {
          "indexed": true,
          "internalType": "address",
          "name": "from",
          "type": "address"
        },
        {
          "indexed": true,
          "internalType": "address",
          "name": "to",
          "type": "address"
        },
        {
          "indexed": false,
          "internalType": "uint256",
          "name": "value",
          "type": "uint256"
        }
      ],
      "name": "Transfer",
      "type": "event"
    },
    {
      "inputs": [
        {
          "internalType": "address",
          "name": "tokenOwner",
          "type": "address"
        },
        {
          "internalType": "address",
          "name": "spender",
          "type": "address"
        }
      ],
      "name": "allowance",
      "outputs": [
        {
          "internalType": "uint256",
          "name": "",
          "type": "uint256"
        }
      ],
      "stateMutability": "view",
      "type": "function"
    },
    {
      "inputs": [
        {
          "internalType": "address",
          "name": "spender",
          "type": "address"
        },
        {
          "internalType": "uint256",
          "name": "amount",
          "type": "uint256"
        }
      ],
      "name": "approve",
      "outputs": [
        {
          "internalType": "bool",
          "name": "",
          "type": "bool"
        }
      ],
      "stateMutability": "nonpayable",
      "type": "function"
    },
    {
      "inputs": [
        {
          "internalType": "address",
          "name": "account",
          "type": "address"
        }
      ],
      "name": "balanceOf",
      "outputs": [
        {
          "internalType": "uint256",
          "name": "",
          "type": "uint256"
        }
      ],
      "stateMutability": "view",
      "type": "function"
    },
    {
      "inputs": [
        {
          "internalType": "uint256",
          "name": "amount",
          "type": "uint256"
        }
      ],
      "name": "burn",
      "outputs": [
        {
          "internalType": "bool",
          "name": "",
          "type": "bool"
        }
      ],
      "stateMutability": "nonpayable",
      "type": "function"
    },
    {
      "inputs": [],
      "name": "decimals",
      "outputs": [
        {
          "internalType": "uint8",
          "name": "",
          "type": "uint8"
        }
      ],
      "stateMutability": "view",
      "type": "function"
    },
    {
      "inputs": [
        {
          "internalType": "address",
          "name": "to",
          "type": "address"
        },
        {
          "internalType": "uint256",
          "name": "amount",
          "type": "uint256"
        }
      ],
      "name": "mint",
      "outputs": [
        {
          "internalType": "bool",
          "name": "",
          "type": "bool"
        }
      ],
      "stateMutability": "nonpayable",
      "type": "function"
    },
    {
      "inputs": [],
      "name": "name",
      "outputs": [
        {
          "internalType": "string",
          "name": "",
          "type": "string"
        }
      ],
      "stateMutability": "view",
      "type": "function"
    },
    {
      "inputs": [],
      "name": "owner",
      "outputs": [
        {
          "internalType": "address",
          "name": "",
          "type": "address"
        }
      ],
      "stateMutability": "view",
      "type": "function"
    },
    {
      "inputs": [],
      "name": "symbol",
      "outputs": [
        {
          "internalType": "string",
          "name": "",
          "type": "string"
        }
      ],
      "stateMutability": "view",
      "type": "function"
    },
    {
      "inputs": [],
      "name": "totalSupply",
      "outputs": [
        {
          "internalType": "uint256",
          "name": "",
          "type": "uint256"
        }
      ],
      "stateMutability": "view",
      "type": "function"
    },
    {
      "inputs": [
        {
          "internalType": "address",
          "name": "to",
          "type": "address"
        },
        {
          "internalType": "uint256",
          "name": "amount",
          "type": "uint256"
        }
      ],
      "name": "transfer",
      "outputs": [
        {
          "internalType": "bool",
          "name": "",
          "type": "bool"
        }
      ],
      "stateMutability": "nonpayable",
      "type": "function"
    },
    {
      "inputs": [
        {
          "internalType": "address",
          "name": "from",
          "type": "address"
        },
        {
          "internalType": "address",
          "name": "to",
          "type": "address"
        },
        {
          "internalType": "uint256",
          "name": "amount",
          "type": "uint256"
        }
      ],
      "name": "transferFrom",
      "outputs": [
        {
          "internalType": "bool",
          "name": "",
          "type": "bool"
        }
      ],
      "stateMutability": "nonpayable",
      "type": "function"
    },
    {
      "inputs": [
        {
          "internalType": "address",
          "name": "newOwner",
          "type": "address"
        }
      ],
      "name": "transferOwnership",
      "outputs": [],
      "stateMutability": "nonpayable",
      "type": "function"
    }
  ],
  "bytecode": "0x60806040523480156200001157600080fd5b5060405162000f1738038062000f17833981016040819052620000349162000190565b60016000556002620000478582620002aa565b506003620000568482620002aa565b506004805460ff191660ff84161790556005819055336000818152600660209081526040808320859055600180546001600160a01b03191685179055518481527fddf252ad1be2c89b69c2b068fc378daa952ba7f163c4a11628f55a4df523b3ef910160405180910390a35050505062000376565b634e487b7160e01b600052604160045260246000fd5b600082601f830112620000f357600080fd5b81516001600160401b0380821115620001105762000110620000cb565b604051601f8301601f19908116603f011681019082821181831017156200013b576200013b620000cb565b816040528381526020925086838588010111156200015857600080fd5b600091505b838210156200017c57858201830151818301840152908201906200015d565b600093810190920192909252949350505050565b60008060008060808587031215620001a757600080fd5b84516001600160401b0380821115620001bf57600080fd5b620001cd88838901620000e1565b95506020870151915080821115620001e457600080fd5b50620001f387828801620000e1565b935050604085015160ff811681146200020b57600080fd5b6060959095015193969295505050565b600181811c908216806200023057607f821691505b6020821081036200025157634e487b7160e01b600052602260045260246000fd5b50919050565b601f821115620002a557600081815260208120601f850160051c81016020861015620002805750805b601f850160051c820191505b81811015620002a1578281556001016200028c565b5050505b505050565b81516001600160401b03811115620002c657620002c6620000cb565b620002de81620002d784546200021b565b8462000257565b602080601f831160018114620003165760008415620002fd5750858301515b600019600386901b1c1916600185901b178555620002a1565b600085815260208120601f198616915b82811015620003475788860151825594840194600190910190840162000326565b5085821015620003665787850151600019600388901b60f8161c191681555b5050505050600190811b01905550565b610b9180620003866000396000f3fe608060405234801561001057600080fd5b50600436106100cf5760003560e01c806342966c681161008c57806395d89b411161006657806395d89b41146101d8578063a9059cbb146101e0578063dd62ed3e146101f3578063f2fde38b1461020657600080fd5b806342966c681461017157806370a08231146101845780638da5cb5b146101ad57600080fd5b806306fdde03146100d4578063095ea7b3146100f257806318160ddd1461011557806323b872dd1461012c578063313ce5671461013f57806340c10f191461015e575b600080fd5b6100dc61021b565b6040516100e991906108dd565b60405180910390f35b610105610100366004610947565b6102a9565b60405190151581526020016100e9565b61011e60055481565b6040519081526020016100e9565b61010561013a366004610971565b610341565b60045461014c9060ff1681565b60405160ff90911681526020016100e9565b61010561016c366004610947565b6104fa565b61010561017f3660046109ad565b6105c2565b61011e6101923660046109c6565b6001600160a01b031660009081526006602052604090205490565b6001546101c0906001600160a01b031681565b6040516001600160a01b0390911681526020016100e9565b6100dc6106f1565b6101056101ee366004610947565b6106fe565b61011e6102013660046109e8565b6107dc565b6102196102143660046109c6565b610809565b005b6002805461022890610a1b565b80601f016020809104026020016040519081016040528092919081815260200182805461025490610a1b565b80156102a15780601f10610276576101008083540402835291602001916102a1565b820191906000526020600020905b81548152906001019060200180831161028457829003601f168201915b505050505081565b60006002600054036102d65760405162461bcd60e51b81526004016102cd90610a55565b60405180910390fd5b60026000908155338082526007602090815260408084206001600160a01b03881680865290835293819020869055518581527f8c5be1e5ebec7d5bd14f71427d1e84f3dd0314c0f7b2291e5b200ac8c7c3b92591015b60405180910390a35060018060005592915050565b60006002600054036103655760405162461bcd60e51b81526004016102cd90610a55565b600260009081556001600160a01b0385168152600660205260409020548211156103a15760405162461bcd60e51b81526004016102cd90610a8c565b6001600160a01b038416600090815260076020908152604080832033845290915290205482111561040d5760405162461bcd60e51b8152602060048201526016602482015275496e73756666696369656e7420616c6c6f77616e636560501b60448201526064016102cd565b6001600160a01b038416600090815260066020526040902054610431908390610ad0565b6001600160a01b038086166000908152600660205260408082209390935590851681522054610461908390610ae3565b6001600160a01b0380851660009081526006602090815260408083209490945591871681526007825282812033825290915220546104a0908390610ad0565b6001600160a01b0385811660008181526007602090815260408083203384528252918290209490945551858152918616929091600080516020610b3c833981519152910160405180910390a3506001806000559392505050565b6001546000906001600160a01b031633146105275760405162461bcd60e51b81526004016102cd90610af6565b6002600054036105495760405162461bcd60e51b81526004016102cd90610a55565b600260005560055461055c908390610ae3565b6005556001600160a01b038316600090815260066020526040902054610583908390610ae3565b6001600160a01b038416600081815260066020526040808220939093559151909190600080516020610b3c8339815191529061032c9086815260200190565b6001546000906001600160a01b031633146105ef5760405162461bcd60e51b81526004016102cd90610af6565b6002600054036106115760405162461bcd60e51b81526004016102cd90610a55565b6002600055816106545760405162461bcd60e51b815260206004820152600e60248201526d125b9d985b1a5908185b5bdd5b9d60921b60448201526064016102cd565b336000908152600660205260409020548211156106835760405162461bcd60e51b81526004016102cd90610a8c565b3360009081526006602052604090205461069e908390610ad0565b336000908152600660205260409020556005546106bc908390610ad0565b6005556040518281526000903390600080516020610b3c8339815191529060200160405180910390a350600180600055919050565b6003805461022890610a1b565b60006002600054036107225760405162461bcd60e51b81526004016102cd90610a55565b60026000908155338152600660205260409020548211156107555760405162461bcd60e51b81526004016102cd90610a8c565b33600090815260066020526040902054610770908390610ad0565b33600090815260066020526040808220929092556001600160a01b0385168152205461079d908390610ae3565b6001600160a01b038416600081815260066020526040908190209290925590513390600080516020610b3c8339815191529061032c9086815260200190565b6001600160a01b038083166000908152600760209081526040808320938516835292905220545b92915050565b6001546001600160a01b031633146108335760405162461bcd60e51b81526004016102cd90610af6565b6001600160a01b0381166108815760405162461bcd60e51b8152602060048201526015602482015274496e76616c6964206f776e6572206164647265737360581b60448201526064016102cd565b6001546040516001600160a01b038084169216907f8be0079c531659141344cd1fd0a4f28419497f9722a3daafe3b4186f6b6457e090600090a3600180546001600160a01b0319166001600160a01b0392909216919091179055565b600060208083528351808285015260005b8181101561090a578581018301518582016040015282016108ee565b506000604082860101526040601f19601f8301168501019250505092915050565b80356001600160a01b038116811461094257600080fd5b919050565b6000806040838503121561095a57600080fd5b6109638361092b565b946020939093013593505050565b60008060006060848603121561098657600080fd5b61098f8461092b565b925061099d6020850161092b565b9150604084013590509250925092565b6000602082840312156109bf57600080fd5b5035919050565b6000602082840312156109d857600080fd5b6109e18261092b565b9392505050565b600080604083850312156109fb57600080fd5b610a048361092b565b9150610a126020840161092b565b90509250929050565b600181811c90821680610a2f57607f821691505b602082108103610a4f57634e487b7160e01b600052602260045260246000fd5b50919050565b6020808252601f908201527f5265656e7472616e637947756172643a207265656e7472616e742063616c6c00604082015260600190565b602080825260149082015273496e73756666696369656e742062616c616e636560601b604082015260600190565b634e487b7160e01b600052601160045260246000fd5b8181038181111561080357610803610aba565b8082018082111561080357610803610aba565b60208082526025908201527f4f6e6c7920746865206f776e65722063616e2063616c6c20746869732066756e60408201526431ba34b7b760d91b60608201526080019056feddf252ad1be2c89b69c2b068fc378daa952ba7f163c4a11628f55a4df523b3efa26469706673582212207df4031dedcb1db2d3d217729b9d3c8ea70578c658e35b618efb90f24a06a44e64736f6c63430008150033",
  "linkReferences": {},
  "deployedLinkReferences": {}
}