{
  "_format": "hh-sol-artifact-1",
  "contractName": "LoanPlatform",
  "sourceName": "contracts/LoanPlatform.sol",
  "abi": [
    {
      "inputs": [
        {
          "internalType": "address",
          "name": "_tokenAddress",
          "type": "address"
        }
      ],
      "stateMutability": "nonpayable",
      "type": "constructor"
    },
    {
      "anonymous": false,
      "inputs": [
        {
          "indexed": false,
          "internalType": "uint256",
          "name": "loanId",
          "type": "uint256"
        },
        {
          "indexed": false,
          "internalType": "address",
          "name": "borrower",
          "type": "address"
        },
        {
          "indexed": false,
          "internalType": "uint256",
          "name": "amount",
          "type": "uint256"
        }
      ],
      "name": "LoanCreated",
      "type": "event"
    },
    {
      "anonymous": false,
      "inputs": [
        {
          "indexed": false,
          "internalType": "uint256",
          "name": "loanId",
          "type": "uint256"
        },
        {
          "indexed": false,
          "internalType": "address",
          "name": "borrower",
          "type": "address"
        },
        {
          "indexed": false,
          "internalType": "uint256",
          "name": "amount",
          "type": "uint256"
        }
      ],
      "name": "LoanRepaid",
      "type": "event"
    },
    {
      "inputs": [
        {
          "internalType": "uint256",
          "name": "",
          "type": "uint256"
        }
      ],
      "name": "loans",
      "outputs": [
        {
          "internalType": "address",
          "name": "borrower",
          "type": "address"
        },
        {
          "internalType": "uint256",
          "name": "amount",
          "type": "uint256"
        },
        {
          "internalType": "uint256",
          "name": "interest",
          "type": "uint256"
        },
        {
          "internalType": "bool",
          "name": "repaid",
          "type": "bool"
        }
      ],
      "stateMutability": "view",
      "type": "function"
    },
    {
      "inputs": [
        {
          "internalType": "uint256",
          "name": "_loanId",
          "type": "uint256"
        }
      ],
      "name": "repayLoan",
      "outputs": [],
      "stateMutability": "nonpayable",
      "type": "function"
    },
    {
      "inputs": [
        {
          "internalType": "uint256",
          "name": "_amount",
          "type": "uint256"
        },
        {
          "internalType": "uint256",
          "name": "_interest",
          "type": "uint256"
        }
      ],
      "name": "requestLoan",
      "outputs": [],
      "stateMutability": "nonpayable",
      "type": "function"
    },
    {
      "inputs": [],
      "name": "token",
      "outputs": [
        {
          "internalType": "contract ISiliquaCoin",
          "name": "",
          "type": "address"
        }
      ],
      "stateMutability": "view",
      "type": "function"
    }
  ],
  "bytecode": "0x608060405234801561001057600080fd5b5060405161078838038061078883398101604081905261002f91610054565b600080546001600160a01b0319166001600160a01b0392909216919091179055610082565b600060208284031215610065578081fd5b81516001600160a01b038116811461007b578182fd5b9392505050565b6106f7806100916000396000f3fe608060405234801561001057600080fd5b506004361061004c5760003560e01c8063aa452fa614610051578063ab7b1c8914610066578063e1ec3c6814610079578063fc0c546a146100a5575b600080fd5b61006461005f366004610544565b6100ba565b005b61006461007436600461052c565b610349565b61008c61008736600461052c565b6104af565b60405161009c94939291906105a2565b60405180910390f35b6100ad6104f6565b60405161009c91906105ca565b60005460405163095ea7b360e01b81526001600160a01b039091169063095ea7b3906100ec9030908690600401610589565b602060405180830381600087803b15801561010657600080fd5b505af115801561011a573d6000803e3d6000fd5b505050506040513d601f19601f8201168201806040525081019061013e9190610505565b6101635760405162461bcd60e51b815260040161015a90610607565b60405180910390fd5b6000546040516323b872dd60e01b81526001600160a01b03909116906323b872dd9061019790339030908790600401610565565b602060405180830381600087803b1580156101b157600080fd5b505af11580156101c5573d6000803e3d6000fd5b505050506040513d601f19601f820116820180604052508101906101e99190610505565b6102055760405162461bcd60e51b815260040161015a906105de565b60408051608081018252338152602081018481529181018381526000606083018181526001805480820182559281905293517fb10e2d527612073b26eecdfd717e6a320cf44b4afac2b0732d9fcbe2b7fa0cf6600490930292830180546001600160a01b0319166001600160a01b0390921691909117905593517fb10e2d527612073b26eecdfd717e6a320cf44b4afac2b0732d9fcbe2b7fa0cf782015590517fb10e2d527612073b26eecdfd717e6a320cf44b4afac2b0732d9fcbe2b7fa0cf882015591517fb10e2d527612073b26eecdfd717e6a320cf44b4afac2b0732d9fcbe2b7fa0cf9909201805460ff19169215159290921790915580547f8910ba13a55695f056e224bbbc6b65d866b12a8c2fbdf387fb853a1cca298cd79161032c91610694565b338460405161033d9392919061065d565b60405180910390a15050565b60006001828154811061036c57634e487b7160e01b600052603260045260246000fd5b60009182526020909120600490910201600381015490915060ff16156103a45760405162461bcd60e51b815260040161015a90610630565b6000548154600283015460018401546001600160a01b039384169363a9059cbb9316916103d09161067c565b6040518363ffffffff1660e01b81526004016103ed929190610589565b602060405180830381600087803b15801561040757600080fd5b505af115801561041b573d6000803e3d6000fd5b505050506040513d601f19601f8201168201806040525081019061043f9190610505565b61045b5760405162461bcd60e51b815260040161015a906105de565b60038101805460ff191660019081179091558154908201546040517f512d3e65b3e58c2187bb1872aa435dba5bd09c1c03823ba56ab70aac411e4a219261033d9286926001600160a01b039092169161065d565b600181815481106104bf57600080fd5b600091825260209091206004909102018054600182015460028301546003909301546001600160a01b039092169350919060ff1684565b6000546001600160a01b031681565b600060208284031215610516578081fd5b81518015158114610525578182fd5b9392505050565b60006020828403121561053d578081fd5b5035919050565b60008060408385031215610556578081fd5b50508035926020909101359150565b6001600160a01b039384168152919092166020820152604081019190915260600190565b6001600160a01b03929092168252602082015260400190565b6001600160a01b03949094168452602084019290925260408301521515606082015260800190565b6001600160a01b0391909116815260200190565b6020808252600f908201526e151c985b9cd9995c8819985a5b1959608a1b604082015260600190565b6020808252600f908201526e105c1c1c9bdd985b0819985a5b1959608a1b604082015260600190565b602080825260139082015272131bd85b88185b1c9958591e481c995c185a59606a1b604082015260600190565b9283526001600160a01b03919091166020830152604082015260600190565b6000821982111561068f5761068f6106ab565b500190565b6000828210156106a6576106a66106ab565b500390565b634e487b7160e01b600052601160045260246000fdfea2646970667358221220b49706b2e00b2ee3462fa8e1fe8565e4d4ea5234b14f2d421650f1572234a18464736f6c63430008010033",
  "linkReferences": {},
  "deployedLinkReferences": {}
}