{
  "_format": "hh-sol-artifact-1",
  "contractName": "LoanPlatform",
  "sourceName": "contracts/LoanPlatform.sol",
  "abi": [
    {
      "inputs": [
        {
          "internalType": "address",
          "name": "_tokenAddress",
          "type": "address"
        },
        {
          "internalType": "uint256",
          "name": "_interestRate",
          "type": "uint256"
        }
      ],
      "stateMutability": "nonpayable",
      "type": "constructor"
    },
    {
      "anonymous": false,
      "inputs": [
        {
          "indexed": true,
          "internalType": "address",
          "name": "borrower",
          "type": "address"
        },
        {
          "indexed": true,
          "internalType": "uint256",
          "name": "loanId",
          "type": "uint256"
        },
        {
          "indexed": false,
          "internalType": "uint256",
          "name": "amount",
          "type": "uint256"
        },
        {
          "indexed": false,
          "internalType": "uint256",
          "name": "totalAmount",
          "type": "uint256"
        }
      ],
      "name": "LoanCreated",
      "type": "event"
    },
    {
      "anonymous": false,
      "inputs": [
        {
          "indexed": true,
          "internalType": "address",
          "name": "borrower",
          "type": "address"
        },
        {
          "indexed": true,
          "internalType": "uint256",
          "name": "loanId",
          "type": "uint256"
        },
        {
          "indexed": false,
          "internalType": "uint256",
          "name": "repaidAmount",
          "type": "uint256"
        }
      ],
      "name": "LoanRepaid",
      "type": "event"
    },
    {
      "inputs": [],
      "name": "interestRate",
      "outputs": [
        {
          "internalType": "uint256",
          "name": "",
          "type": "uint256"
        }
      ],
      "stateMutability": "view",
      "type": "function"
    },
    {
      "inputs": [
        {
          "internalType": "uint256",
          "name": "",
          "type": "uint256"
        }
      ],
      "name": "loans",
      "outputs": [
        {
          "internalType": "uint256",
          "name": "loanId",
          "type": "uint256"
        },
        {
          "internalType": "address",
          "name": "borrower",
          "type": "address"
        },
        {
          "internalType": "uint256",
          "name": "amount",
          "type": "uint256"
        },
        {
          "internalType": "uint256",
          "name": "interest",
          "type": "uint256"
        },
        {
          "internalType": "uint256",
          "name": "totalAmount",
          "type": "uint256"
        },
        {
          "internalType": "uint256",
          "name": "repaidAmount",
          "type": "uint256"
        },
        {
          "internalType": "bool",
          "name": "active",
          "type": "bool"
        }
      ],
      "stateMutability": "view",
      "type": "function"
    },
    {
      "inputs": [],
      "name": "owner",
      "outputs": [
        {
          "internalType": "address",
          "name": "",
          "type": "address"
        }
      ],
      "stateMutability": "view",
      "type": "function"
    },
    {
      "inputs": [
        {
          "internalType": "uint256",
          "name": "_loanId",
          "type": "uint256"
        },
        {
          "internalType": "uint256",
          "name": "_amount",
          "type": "uint256"
        }
      ],
      "name": "repayLoan",
      "outputs": [],
      "stateMutability": "nonpayable",
      "type": "function"
    },
    {
      "inputs": [
        {
          "internalType": "uint256",
          "name": "_amount",
          "type": "uint256"
        }
      ],
      "name": "requestLoan",
      "outputs": [],
      "stateMutability": "nonpayable",
      "type": "function"
    },
    {
      "inputs": [
        {
          "internalType": "uint256",
          "name": "_newInterestRate",
          "type": "uint256"
        }
      ],
      "name": "setInterestRate",
      "outputs": [],
      "stateMutability": "nonpayable",
      "type": "function"
    },
    {
      "inputs": [],
      "name": "token",
      "outputs": [
        {
          "internalType": "contract SiliquaCoin",
          "name": "",
          "type": "address"
        }
      ],
      "stateMutability": "view",
      "type": "function"
    },
    {
      "inputs": [],
      "name": "totalLoans",
      "outputs": [
        {
          "internalType": "uint256",
          "name": "",
          "type": "uint256"
        }
      ],
      "stateMutability": "view",
      "type": "function"
    }
  ],
  "bytecode": "0x608060405234801561001057600080fd5b5060405161096138038061096183398101604081905261002f91610064565b600080546001600160a01b039093166001600160a01b031993841617815560018054909316331790925560025560035561009c565b60008060408385031215610076578182fd5b82516001600160a01b038116811461008c578283fd5b6020939093015192949293505050565b6108b6806100ab6000396000f3fe608060405234801561001057600080fd5b50600436106100885760003560e01c80638da5cb5b1161005b5780638da5cb5b146100e6578063cc952b57146100fb578063e1ec3c6814610103578063fc0c546a1461012957610088565b80635f84f3021461008d5780637c3a00fd146100a25780638a700b53146100c05780638d5d3429146100d3575b600080fd5b6100a061009b3660046105f7565b610131565b005b6100aa610169565b6040516100b791906107aa565b60405180910390f35b6100a06100ce36600461060f565b61016f565b6100a06100e13660046105f7565b610338565b6100ee610562565b6040516100b7919061065a565b6100aa610571565b6101166101113660046105f7565b610577565b6040516100b797969594939291906107b3565b6100ee6105c1565b6001546001600160a01b031633146101645760405162461bcd60e51b815260040161015b9061075f565b60405180910390fd5b600255565b60025481565b60008281526004602052604090206006015460ff166101a05760405162461bcd60e51b815260040161015b906106d4565b600082815260046020819052604090912060058101549101546101c39190610853565b8111156101e25760405162461bcd60e51b815260040161015b906106fc565b60005460405163a9059cbb60e01b81526001600160a01b039091169063a9059cbb906102149033908590600401610692565b602060405180830381600087803b15801561022e57600080fd5b505af1158015610242573d6000803e3d6000fd5b505050506040513d601f19601f8201168201806040525081019061026691906105d0565b6102825760405162461bcd60e51b815260040161015b906106ab565b600082815260046020526040812060050180548392906102a39084906107fc565b909155505060008281526004602081905260409091209081015460059091015410610334576000828152600460205260409081902060068101805460ff191690556001810154600590910154915184926001600160a01b03909216917fc7ce0a35f17b490de2a317e7fecb2cae86b1abffb03800b2f4928235213826989161032b91906107aa565b60405180910390a35b5050565b60008181526004602052604090206006015460ff161561036a5760405162461bcd60e51b815260040161015b90610733565b600060646002548361037c9190610834565b6103869190610814565b9050600061039482846107fc565b6000546001546040516323b872dd60e01b81529293506001600160a01b03918216926323b872dd926103ce9216903390889060040161066e565b602060405180830381600087803b1580156103e857600080fd5b505af11580156103fc573d6000803e3d6000fd5b505050506040513d601f19601f8201168201806040525081019061042091906105d0565b61043c5760405162461bcd60e51b815260040161015b906106ab565b600033428560405160200161045393929190610630565b60408051808303601f19018152828252805160209182012060e084018352808452338285019081528484018981526060860189815260808701898152600060a08901818152600160c08b0181815260038054855260049a8b90529a84209b518c5596518b820180546001600160a01b0319166001600160a01b03909216919091179055945160028b015592518989015590519588019590955551600587015590516006909501805460ff19169515159590951790945582549094506105199084906107fc565b9091555050604051819033907f1804eb76dc9809be7ef188388aa1aeb765881fd848377be891234e5c584345fe9061055490889087906107ee565b60405180910390a350505050565b6001546001600160a01b031681565b60035481565b6004602081905260009182526040909120805460018201546002830154600384015494840154600585015460069095015493956001600160a01b0390931694919390919060ff1687565b6000546001600160a01b031681565b6000602082840312156105e1578081fd5b815180151581146105f0578182fd5b9392505050565b600060208284031215610608578081fd5b5035919050565b60008060408385031215610621578081fd5b50508035926020909101359150565b60609390931b6bffffffffffffffffffffffff191683526014830191909152603482015260540190565b6001600160a01b0391909116815260200190565b6001600160a01b039384168152919092166020820152604081019190915260600190565b6001600160a01b03929092168252602082015260400190565b6020808252600f908201526e151c985b9cd9995c8819985a5b1959608a1b604082015260600190565b6020808252600e908201526d27379030b1ba34bb32903637b0b760911b604082015260600190565b60208082526018908201527f496e76616c69642072657061796d656e7420616d6f756e740000000000000000604082015260600190565b602080825260129082015271416374697665206c6f616e2065786973747360701b604082015260600190565b6020808252602b908201527f4f6e6c7920746865206f776e65722063616e206368616e67652074686520696e60408201526a746572657374207261746560a81b606082015260800190565b90815260200190565b9687526001600160a01b0395909516602087015260408601939093526060850191909152608084015260a0830152151560c082015260e00190565b918252602082015260400190565b6000821982111561080f5761080f61086a565b500190565b60008261082f57634e487b7160e01b81526012600452602481fd5b500490565b600081600019048311821515161561084e5761084e61086a565b500290565b6000828210156108655761086561086a565b500390565b634e487b7160e01b600052601160045260246000fdfea2646970667358221220462ed73dda4e8608d35d45bc307ba4d90c837e5f25371d1ed01f0d834b5220f464736f6c63430008010033",
  "linkReferences": {},
  "deployedLinkReferences": {}
}